:020000040000FA
:100000000214027871E6FA08E6FB64014A70139064
:10001000003EE0FCA3E0FDA3E0FEA3E0FFEE4440D1
:100020008015EB4A701990003EE0FCA3E0FDA3E0D0
:10003000FEA3E0FFEE4480FEEC90003E020173124E
:10004000274222020DDEBB010689828A83E022500C
:1000500002E722BBFE02E32289828A83E49322BB69
:10006000010CE58229F582E5833AF583E02250060A
:10007000E92582F8E622BBFE06E92582F8E222E5C0
:100080008229F582E5833AF583E49322BB01068950
:10009000828A83F0225002F722BBFE01F322F8BBD2
:1000A000010DE58229F582E5833AF583E8F02250D7
:1000B00006E92582C8F622BBFE05E92582C8F222A0
:1000C000BB010A89828A83E0F5F0A3E0225006870B
:1000D000F009E71922BBFE07E3F5F009E3192289CD
:1000E000828A83E493F5F074019322BB0110E582C8
:1000F00029F582E5833AF583E0F5F0A3E022500983
:10010000E92582F886F008E622BBFE0AE92582F896
:10011000E2F5F008E222E5832AF583E993F5F0A3FE
:10012000E99322BB010A89828A83F0E5F0A3F022D9
:100130005006F709A7F01922BBFE06F3E5F009F314
:100140001922EB9FF5F0EA9E42F0E99D42F0E89C0F
:1001500045F0227401FF3395E0FEFDFC080808E637
:10016000CF2FF618E6CE3EF618E6CD3DF618E6CCD3
:100170003CF622ECF0A3EDF0A3EEF0A3EFF022A802
:10018000828583F0D083D0821201961201961201EB
:1001900096120196E473E493A3C583C5F0C583C8A2
:1001A000C582C8F0A3C583C5F0C583C8C582C8226F
:1001B000FAE6FB0808E6F925F0F618E6CA3AF62250
:1001C000EBF0A3EAF0A3E9F022BB010789828A835E
:1001D0000203375005E9F802032EBBFE05E9F802D9
:1001E000034089828A83020349BB010DE58229F518
:1001F00082E5833AF5830203375007E92582F80246
:10020000032EBBFE07E92582F8020340E58229F5AB
:1002100082E5833AF583020349D083D082F8E493E0
:100220007012740193700DA3A393F8740193F58277
:100230008883E4737402936860EFA3A3A380DF8ACA
:10024000838982E473E709F60870FA8046E709F2C9
:100250000870FA803E88828C83E709F0A370FA80E8
:100260007EE309F60870FA8076E309F20870FA80F6
:100270006E88828C83E309F0A370FA806289828A97
:1002800083E0A3F60870FA805689828A83E0A3F29D
:100290000870FA804A80D280FA80C680D480658057
:1002A000F28031801080A680EA809A80A880DA806F
:1002B000E280CA803189828A83ECFAE493A3C8C5BC
:1002C00082C8CCC583CCF0A3C8C582C8CCC583CCBA
:1002D00070E9800D89828A83E493A3F60870F9ECB3
:1002E000FAA9F0EDFB2289828A83ECFAE0A3C8C563
:1002F00082C8CCC583CCF0A3C8C582C8CCC583CC8A
:1003000070EA80DD89828A83E493A3F20870F98021
:10031000CE88F0ED2402B4040050C4F582EB240230
:10032000B4040050BA232345822390029573E6FB60
:1003300008E6FA08E6F922E0FBA3E0FAA3E0F922D6
:10034000E2FB08E2FA08E2F922E493FB740193FA73
:10035000740293F9229000DFEBF0A3EAF0A3E9F036
:1003600090001112005F900043F0E49000ECF090D8
:1003700000ECE0FF7C007BFF24B5F9EC3429FA1295
:100380000046FEEF7B012400F9EC3400FAEE120087
:100390008C9000ECE004F0E0B412D4E49000ECF0B7
:1003A0009000ECE0FF9029C793FE74122FF582E4D1
:1003B0003400F583EEF09000ECE004F0E0B420E0CF
:1003C0009000DFE0FBA3E0FAA3E0F91200C0FAE539
:1003D000F0FFEAFE900008EEF0A3EFF09000DFA33C
:1003E000E0FA9000021200EBFAE5F0FFEAFE90005E
:1003F0000AEEF0A3EFF090003274FFF0A37429F03E
:10040000A374E7F09000DFA3E0FAA3E090000412E9
:1004100001E9E924FFF9EA34FFFA900035EBF0A393
:10042000EAF0A3E9F09000DFE0FBA3E0FAA3E0F933
:100430009000071201E9E924FFF9EA34FFFA90007D
:1004400038EBF0A3EAF0A3E9F09000DFE0FBA3E0D3
:10045000FAA3E0F990000A1201E9E924FFF9EA346D
:10046000FFFA90003BEBF0A3EAF0A3E9F09000DF85
:10047000E0FBA3E0FAA3E0F990000D12005FFFC3D8
:1004800094FA500590001AEFF09000DFE0FBA3E033
:10049000FAA3E0F990000F1200EBFAE5F0FFEAFE94
:1004A00090000CEEF0A3EFF09000DFA3E0FA9000D4
:1004B0000E12005F900019F09000E27401F0A37436
:1004C00000F0A37400F0A37401F0A37400F0A3740F
:1004D00012F0A37401F0A37400F0A37432F0A374BB
:1004E00004F07B017A0079E212112190003E1201A2
:1004F0007F00000000E4900042F09000FD04F0A3B3
:100500007404F0A37440F0A37401F07BFF7A29799E
:10051000AD121D3F9000FD7401F0A37404F0A374AC
:1005200041F0A37401F07BFF7A2979AE121D3F9050
:1005300000FD7401F0A37404F0A37442F0A37402EC
:10054000F07BFF7A2979AF121D3F9000FD7401F016
:10055000A37404F0A37444F0A37401F07BFF7A2920
:1005600079B1121D3F9000FD7401F0A37404F0A353
:100570007446F0A37401F07BFF7A2979B3121D3F12
:100580009000FD7401F0A37404F0A37448F0A37408
:1005900013F07BFF7A297980121D3F9000FD7401D2
:1005A000F0A37404F0A3745BF0A37410F07BFF7AE3
:1005B000297993121D3F9000FD7401F0A37404F09B
:1005C000A3746BF0A37404F07BFF7A2979A3121D46
:1005D0003F9000FD7401F0A37404F0A37471F0A3C4
:1005E0007404F07BFF7A2979A9021D3FE4FDFC75B4
:1005F0004FFF786FE6648060030206FB7871E6FEC9
:1006000008E6F54BEEFF7E00E460030206D9EF2416
:10061000FE602A14604E240260030206D9E54B6096
:10062000030206D9788D860308E6FA08E6F98B4CB2
:100630008A4DF54E1200467C00FD0206D9E54B605E
:10064000030206D97890860308E6FA08E6F98B4C8F
:100650008A4DF54E9000021200EBFAE5F0FFEAFC3D
:10066000EFFD80757893860308E6FA08E6F975F0E1
:1006700003E54BA4F58285F0831201E98B4C8A4D8A
:10068000894EE54B700BFC7D047877E65480F6804C
:10069000487873E6FE08E6FF4E600AEF64097003CF
:1006A000EE64047034E54BC3786C96502CAB4CAAC6
:1006B0004DA94E90000112005F7C00FD12004654CF
:1006C0007FFF7877E654804FFFF67401254EF54E94
:1006D000E4354DF54DEF4480F6ED4C601E7875E63F
:1006E000FE08E6FFD3ED9FEC9E4004AC06AD07ABE1
:1006F0004CAA4DA94E122698E4F54FAF4F22787EB2
:10070000E6139201787BE6FE08E6FFC39440EE9480
:100710000040047F4080008F4A854A4B7877E6FF8F
:10072000547F64017068EF30E72608860308E6FA14
:1007300008E6F9C2097D02E4FF121755787A7402BF
:1007400026F618E436F6154A154A7877E6547FF609
:10075000E4F54CE54AC313FFE54CC39F504D787850
:10076000860308E6FA08E6F9C2097D01E4FF1217DC
:1007700055787A740126F618E436F67BFF7A2A79E2
:1007800059C2097D01E4FF121755054C80C57878E0
:10079000860308E6FA08E6F9C209AD4AE4FF121733
:1007A00055787AE54A26F618E436F6787EE654FB64
:1007B000F6C3787CE6954BFF18E69400FEF608EF4A
:1007C000F64E701EE54B6440601875961175970AD9
:1007D000E59620E7FB787D7601E47877F6787EF67B
:1007E000800B759611759702E59620E7FB30011492
:1007F000E54BFB7A00787BE6F55108E6F552E4FD1F
:10080000FF120FDC2212248A8F278E268D258C243E
:10081000E5275410121E996006121E681220D5E5B5
:10082000275404121E9970030208F3E4F528D390AC
:10083000005CE0952890005BE0940050030208EB18
:10084000121E7BFF1216818F2CE52C6403700E782C
:100850009F7C007D017BFF7A16793C8066E52CB495
:100860000205121A07805FE52C707B121E7BB472A2
:1008700005121A5F8050121E7B646670331221AD20
:10088000752901752A00752B9F7829121E617466DF
:1008900012008C7829121E61742012008C85293A6E
:1008A000852A3B852B3C121E887D06121EA08016D1
:1008B000121E7B643F702F789F7C007D017BFF7A46
:1008C0001679451203117B017A00799F122757ACE4
:1008D00006AD077B017A00795D9000E41201C07AD1
:1008E00000799F02210C052802082E121E687C0048
:1008F0001220D5E5275402121E996006121E6812B6
:1009000020D5227870E6120219095800095D030902
:100910006204096705096C06097107097608097BF5
:100920000909800A09850B098A0C09940D09990E99
:10093000099E0F09A31009A81109AD1209B21309E4
:10094000B71409BC15098F1609CB1909C11D09C6B1
:100950001E09D0FF000009D5121BB8807B1215A01C
:1009600080761223768071120003806C1225398004
:10097000671209FE80621224B7805D1219AD80589B
:10098000121B0D805312124F804E1223A480491265
:100990001C0C8044121826803F1223D2803A122168
:1009A000788035122400803012293D802B121F26BA
:1009B00080261227CD802112242E801C121F6980D0
:1009C0001712245C80121227F3800D1227E0800892
:1009D0001225D88003122742787DE66405601E90B8
:1009E0000042E030E01790003EE0FCA3E0FDA3E011
:1009F000FEA3E0FFEC4D4E4F600312289B229000B7
:100A0000F67401F0A37400F0A374EDF0A37402F087
:100A10007B017A047940121CF79000F67401F0A370
:100A20007400F0A374EEF0A37405F07B017A0479EE
:100A30005B121CF77871E6FC08E6FD5430FF90006D
:100A4000EDE054CF4FF0A3E020E12EEC30E02AE6B9
:100A50009000ED30E006E04401F08004E054FEF048
:100A600090003EE0FCA3E0FDA3E0FEA3E0FFEE4427
:100A700004FEEC90003E1201739000F2E020E73596
:100A80007871E6FE08E6FFEE30E12AEF9000ED30E7
:100A9000E106E04402F08004E054FDF090003EE006
:100AA000FCA3E0FDA3E0FEA3E0FFEE4404FEEC9017
:100AB000003E120173787DE66405601A9000FD74B3
:100AC00001F0A37404F0A37440F0A37401F0FB7A66
:100AD0000079ED121D3F22C2017F011228D5122894
:100AE0008E5015759694E59620E7FB5397BFE596D3
:100AF00020E703020BA480F61228B34003020BA4E4
:100B00001229318F4A788BE66403600A08E64402B2
:100B1000F6754BF9806DC3788AE6954A18E694001D
:100B2000500E788B760108E64402F6754BF280533E
:100B30007886860308E6FA08E6F9AD4A7F01121DB9
:100B400087788CE654FDF6AF4A7E00C3788AE69F2C
:100B5000F618E69EF618EF26F618EE36F6788AE6D0
:100B600018466006E54A64406006788B7601D2013B
:100B7000E4F54B759694E59620E7FB5397FEE596D2
:100B800020E7FB788CE630E01B30010354FEF6E5ED
:100B90004AFB7A007889E6F55108E6F552AD4B7FBD
:100BA00002120FDC22754BFF7871E6FC08E6FDECC3
:100BB0006003020C68786FE6541F6003020C6878CB
:100BC00076E618466003020C6818E61846600302D1
:100BD0000C68786DE664047048ED4C601978908676
:100BE0000308E6FA08E6F990000512005F787266DD
:100BF000700218E670727872E6786BF67890860369
:100C000008E6FA08E6F990000512005F787266704F
:100C10000218E67050D20112258C7F06122316802E
:100C200044786DE6640670407871E6FE08E6FF4E93
:100C300060177890860308E6FA08E6F99000051236
:100C4000005FB50723E4B5061F7872E6786BF67887
:100C500072E61846700A7F041223161225FB8005DF
:100C6000C20112258CE4F54BAF4B228F5D8B5E8A5F
:100C70005F8960E55D601514601280007BFF7A2358
:100C800079467D7E7C0212293B7FFC22E55D600A6D
:100C9000786DE6640660037FF722E55D75F007A4D2
:100CA0002478F9AF01EF2405F8E6FE64016009EE4F
:100CB0007FFEB405027FFB22E5E6A2E1920853E63F
:100CC000FDAA5FA960A807A65E08A60208A601EF14
:100CD0002403F8A66108A662EF2405F87602A207AD
:100CE000E4335401FEEF2406F8E654FE4EF6E55DCB
:100CF00014600B04702C787EE64404F68024D3E55F
:100D0000629440E561940040047D408004AF62AD90
:100D100007787F860308E6FA08E6F9D2097F011210
:100D2000175530080343E6027F0022754BFF7876A3
:100D3000E6640218466003020DDB7872E61846602E
:100D400003020DDB786FE6FF20E703020DDB786D11
:100D5000E6C394045003020DDBE4F568F569EF5433
:100D60001F146018146023240270617874E618461A
:100D7000705A1229175052436801804DC37874E6A7
:100D8000940118E694005044803F7873E6FE08E62C
:100D9000FFAC06547F4C7008786DE6B404028029DD
:100DA000786DE6B40626EF247F60122480701D78EB
:100DB0008BE6B40606756801756900800C7884E6D8
:100DC000B40606756801756900E4F54BE54B700BD8
:100DD000FB7A0079687D02FC122698AF4B22C0E0B6
:100DE000C0F0C083C082C0D075D000C000C001C0B8
:100DF00002C003C004C005C006C0071228E08F4629
:100E00001228EB8F471228F68F481229018F49E5E7
:100E10004630E328787EE6FF30E10618E66403609A
:100E20000AEF30E209787DE6B40203434701788C8B
:100E3000E630E10818E6B40303434802E54630E231
:100E400003121FAAE54630E10312292AE54630E0E5
:100E50000312283CE54730E103120E8CE54830E1EF
:100E600003120AD7E54730E003121082AF49122877
:100E7000D5D007D006D005D004D003D002D001D001
:100E800000D0D0D082D083D0F0D0E0327F011228C1
:100E9000D51228815010759611E4F597E59620E754
:100EA00003020F3380F67884E664026003020F3396
:100EB0007882E6FE08E6FFD39440EE940040047F7B
:100EC0004080008F4A7E00C37883E69FF618E69E36
:100ED000F618EF26F618EE36F67885E613920178C6
:100EE00082E6FE08E6FFD39400EE94004024D3EFA0
:100EF0009440EE940040047D4080047883E6FD78C1
:100F00007F860308E6FA08E6F9D2097F0112175531
:100F100080097885E654FEF6187601300115E54A19
:100F2000FB7A007882E6F55108E6F552E4FD7F0190
:100F3000120FDC22754BFF7876E618466003020F2D
:100F4000D9786FE6541F24FE6003020FD97872E649
:100F500018466003020FD97873E6FE08E6547FFF57
:100F60004E700D786DE6C394044005E4F54B80693E
:100F7000C3EF9403EE94005060786DE664067059F8
:100F8000F54B7874E6547FFF1228D57874E630E785
:100F90000B759611759740E59620E7FB7874E6206F
:100FA000E718759694E59620E7FB5397DFE59620C2
:100FB000E7FB439780E59620E7FB7874E6247F60A3
:100FC0000F24807014788BE66403600D760180092D
:100FD0007884E6640260027601AF4B228F4D8D4E1D
:100FE0008A4F8B50E54D7012E54E700E786FE6C457
:100FF000135403FFBF0203121DCEE54DB4012EE5CD
:101000004E702A900478E0FBA3E0FAA3E0F9E54FE4
:101010008550F012012390003EE0FCA3E0FDA3E028
:10102000FEA3E04402FFEC90003E120173E54DB4D4
:10103000022EE54E702A90047BE0FBA3E0FAA3E0C9
:10104000F9E54F8550F012012390003EE0FCA3E04B
:10105000FDA3E0FEA3E04404FFEC90003E12017308
:10106000900042E030E01790003EE0FCA3E0FDA3DA
:10107000E0FEA3E0FFEC4D4E4F600312289BE4FE20
:10108000FF22E4FF1228D5122867400512285A5083
:101090001D759611E4F597E59620E7FB7596117599
:1010A0009780E59620E7FB787D7601E408F6122824
:1010B000A7505F787EE6FF30E3028053787DE664D8
:1010C00001703E7877F612188C7F6F1227BABFFD39
:1010D00014786FE6FFC41354037005121491803224
:1010E000122742802D786FE620E727787DE664039B
:1010F00060207876E618466019787EE64408F68027
:1011000011787DE6B403051211B88006787EE644B6
:1011100002F6787DE6B4020812287440031206FE37
:10112000228B248A25892653E6FDE4FF746B2FF871
:10113000E4F60FBF2BF6AB24AA25A9261201C97825
:101140008DA60308A60208A601AB24AA25A926900D
:1011500000031201E97890A60308A60208A601ABD5
:1011600024AA25A9269000061201E97893A603086F
:10117000A60208A601AB24AA25A926900009120000
:101180005F786CF653A98F43D720759601759788C1
:10119000E59620E7FB75960B75970FE59620E7FB24
:1011A0001228CA786D760343E60275960175978119
:1011B000E59620E7FB7F0022787EE6139201122954
:1011C0000C8F4AC3787CE69F18E69400500E787D19
:1011D000760108E64402F6754BF2805A7878860369
:1011E00008E6FA08E6F9AD4AE4FF121D87AF4A7E29
:1011F00000787AEF26F618EE36F6C3787CE69FFF85
:1012000018E69EFEF608EFF6E4F54BEF4E701CE58F
:101210004A64406016759611759748E59620E7FB7D
:10122000787D760108E654FEF6800B759611759769
:1012300040E59620E7FB300115E54AFB7A00787B14
:10124000E6F55108E6F552AD4BE4FF120FDC2290B3
:1012500000F67401F0A37400F0A37446F0A37402C6
:10126000F07B017A047946121CF77871E6FC08E6F7
:10127000900044F0ECA3F0A3E0FF900044E0FEEF08
:101280005E900046F0A3E0FF900045E0FEEF5E9028
:101290000047F09000FD7401F0A37404F0A37444BF
:1012A000F0A37402F07B017A007944121D3F900094
:1012B000FD7401F0A37404F0A37446F0A37402F06B
:1012C0007B017A007946121D3F90003EE0FCA3E0CE
:1012D000FDA3E0FEA3E0FFED4402FDEC90003E0222
:1012E00001738F1A8B1B8A1C891DE51A601624FE58
:1012F000601280007BFF7A2379467D117C011229E0
:101300003B7FFC22E51A600A786DE6640660037F85
:10131000F722E51A75F007A42478F9AF01EF240548
:10132000F8E6FE64016009EE7FFEB405027FFB2251
:10133000E5E6A2E1920653E6FDAA1CA91DA807A6B0
:101340001B08A60208A601EF2403F8A61E08A61F84
:10135000EF2405F87603A205E4335401FEEF2406DA
:10136000F8E654FE4EF654F7F630060343E6027FE5
:101370000022754BFF7876E6184660030213FF786B
:101380006FE6541F24FE70777873E6FE08E6547FFC
:10139000FF4E700D786DE6C394044005E4F54B8074
:1013A0005EC3EF9403EE940050557872E6184670D1
:1013B0004E786DE664067047F54B7874E6547FFF0F
:1013C0001228D57874E630E70B759611759710E5FD
:1013D0009620E7FB7874E620E710759694E5962052
:1013E000E7FB439720E59620E7FB7874E6247F60CF
:1013F0000A2480700A788B7606800478847606AF9B
:101400004B22122937787FE4F6D8FD7581950214B6
:101410004C022027E493A3F8E493A34003F6800151
:10142000F208DFF48029E493A3F85407240CC8C31E
:1014300033C4540F4420C8834004F456800146F658
:10144000DFE4800B010204081020408090263DE478
:101450007E019360BCA3FF543F30E509541FFEE4B6
:1014600093A360010ECF54C025E060A840B8E49378
:10147000A3FAE493A3F8E493A3C8C582C8CAC583BA
:10148000CAF0A3C8C582C8CAC583CADFE9DEE7803F
:10149000BEE4F54A7870E6B40C00506A9014A3F8E4
:1014A0002828730214C70214CE0215060214D502AE
:1014B00015060214DC0214E30215060214EA0214F3
:1014C000F10214F80214FF120D2B8F4A803B120F09
:1014D000348F4A80341213728F4A802D1218F08F85
:1014E0004A80261205EC8F4A801F121E158F4A80F3
:1014F00018120BA58F4A8011121FE98F4A800A1219
:1015000022E58F4A8003754AFFE4FF1228D5E54A99
:10151000B4FF03122742AF4A22AE07E4FB1228D5DC
:10152000300313A80674107E00088005C333CE3341
:10153000CED8F9FF8013AF0674207E00A80708807C
:1015400005C333CE33CED8F9FFD3ED9FEC9E5003C5
:101550004303803004034303403002204303203020
:101560000303430304759611759740E59620E7FB46
:101570007596128B97E59630E72580F97596147568
:101580009780E59620E7FB7596158B97E59620E703
:10159000FB20030B759612E4F597E59620E7FB22F6
:1015A0007872E6540F24FD500580001227427872AD
:1015B000E654F0601524F0601124F0600D24F06012
:1015C0000924F0600580001227427871E60824FBA8
:1015D00024FC50058000122742787DE664056034C3
:1015E0009000FD7401F0A37404F0A37442F0A3749E
:1015F00002F07B007A007971121D3F90003EE0FC02
:10160000A3E0FDA3E0FEA3E0FFEE4402FEEC9000A9
:101610003E12017322303132333435363738394196
:101620004243444546006932635F6572720A006353
:101630006F6E6669675F646F6E650A00696E705FE2
:101640006572720A000A72203D20726561640A7731
:10165000203D20777269746520282777203031205B
:10166000633220626320383120383320303227291A
:101670000A66203D2073686F7720666C6173680A84
:1016800000AE07E55314600F04705AEE647770588B
:10169000F5547553018051AF0612209EEFD3940F7D
:1016A0005021E55430E00AC3132457F8E64FF68082
:1016B0000EEFC454F0FFE554C3132457F8A60705F2
:1016C000548015EE64206010EE642C600BEE643BD9
:1016D0006006E4F5537F0322E554C3940C4009E40B
:1016E000F5537F0222E4F553AF53228F4FE4F551B7
:1016F000E54F6005C3940340127BFF7A2379467D52
:101700004A7C0012293B7551FC8041E5E6A2E1923A
:101710000253E6FDE54F75F007A42478F98950E5FA
:10172000502405F8E664016023E54F24FE600A04B6
:10173000700C7F011221E180057F01122215E55016
:101740002405F87601E5502406F8E4F63002034358
:10175000E602AF51228F638D648B658A668967E5E7
:101760009620E7FBE5634420F596E56514601324B5
:1017700003601A146020147026AD67AF6412276CE2
:10178000801DAC66AD67AF6412272C8012AD67AFC9
:10179000641227808009AC66AD67AF641226E93019
:1017A000091CE563D394004015AF631228D57596E4
:1017B00091E59620E7FB439701E59620E7FB228F12
:1017C000368D378B388A39893A753D01122716E5EF
:1017D0003625E012181EAF37121B63EF523D122759
:1017E00016E53625E0440112181EE53C153CAE3BDB
:1017F0007002153BD39400EE9400401CE53C453B41
:101800007F0060027F011219527838E475F00112EE
:1018100001B0EF12008C80D2122700AF3D22FF12E0
:101820001B63EF523D229000F67401F0A37400F0A8
:10183000A37444F0A37406F07B017A04796B121C44
:10184000F77871E6FC08E6FDECFF7C0074442DF5AA
:1018500082EC3400F583EFF09000FD7401F0A37486
:1018600004F0A3746BF0A37402F07B017A00794456
:10187000121D3F90003EE0FCA3E0FDA3E0FEA3E0CC
:10188000FFED4404FDEC90003E020173754A6FA920
:101890004A7A007B007D08E4FF121D87759611755A
:1018A0009740E59620E7FBE54A2402F8E6FC08E6C7
:1018B000FAECFFEAFEE54A2402F8A60608A607E5C8
:1018C0004A2404F8E6FC08E6FAECFFEAFEE54A24BE
:1018D00004F8A60608A607E54A2406F8E6FC08E68A
:1018E000FAECFFEAFEE54A2406F8A60608A6072257
:1018F000754BFF7871E6FE08E6FFC39480EE940016
:10190000504D7876E618467046786FE6541F703F63
:101910007874E618467038786DE6B4030BEF4E60C5
:10192000197F041223168012786DE6B4040F7872C2
:10193000E6184670057F03122316E4F54BE54B705D
:101940000EF5967872E64480F597E59620E7FBAFB2
:101950004B228F3EE4F540F53FE54025E0F540128F
:1019600028BF12250FA286E4334240C2871228C145
:1019700012250F053FE53FD3940740DDC2871228AB
:10198000C112250FE53E6004C2868002D28612286D
:10199000C112250F1228BF12250FC2871228C112AB
:1019A000250FD2861228C112250FAF40229000F6D3
:1019B0007401F0A37400F0A37444F0A37405F07BE9
:1019C000017A047948121CF7900048E0FF30E303E5
:1019D00054F7F09000FD7401F0A37404F0A3744870
:1019E000F0A37405F07B017A007944121D3F90004A
:1019F0003EE0FCA3E0FDA3E0FEA3E0FFEE4410FE0A
:101A0000EC90003E020173E4FF752D01752E007508
:101A10002F9F782D121E62747712008C782D121E63
:101A200061742012008C852D3A852E3B852F3C1247
:101A30001E887D06121EA08B2D8A2E892F122063F0
:101A4000121E88121EE3EFA82FAC2EAD2D7BFF6077
:101A5000067A16792F80047A1679261203112275D8
:101A6000330175340075359F7B007A00792D753B05
:101A700000753C067D0D7F551217BF7833121E612D
:101A8000747212008C7833121E61742012008CEF75
:101A9000601485333A85343B85353C7B007A007988
:101AA0002D7D06021EA0A835AC34AD337BFF7A161F
:101AB0007926120311228F4EAB05BB051790003E0D
:101AC000E0FCA3E0FDA3E0FEA3E04480FFEC900077
:101AD0003E120173BB061790003EE0FCA3E0FDA39D
:101AE000E0FEA3E04440FFEC90003E120173900042
:101AF00042E030E01790003EE0FCA3E0FDA3E0FEF2
:101B0000A3E0FFEC4D4E4F600312289B229000F69D
:101B10007401F0A37400F0A37444F0A37405F07B87
:101B2000017A047948121CF7900048E04408F090CC
:101B300000FD7401F0A37404F0A37448F0A37405CD
:101B4000F07B017A007944121D3F90003EE0FCA337
:101B5000E0FDA3E0FEA3E0FFEE4420FEEC90003E9B
:101B60000201738F3EE4F53FE53E30E704D2868004
:101B700002C2861228C112250F1228BF12250FE5B6
:101B80003E25E0F53EC2871228C112250F053FE52C
:101B90003FD3940740D2D2861228C112250F1228B3
:101BA000BF12250F7F002086027F018F40C287125F
:101BB00028C112250FAF40227872E618467035A270
:101BC000AF33FBC2AFE4900444F0A3F0900446F0BE
:101BD000A3F0900440E0F090003EE0FCA3E0FDA301
:101BE000E0FEA3E04420FFEC90003E120173EB24E2
:101BF000FF92AF2290003EE0FCA3E0FDA3E0FEA335
:101C0000E04410FFEC90003E120173229000F67445
:101C100001F0A37400F0A37444F0A37401F0FB7A04
:101C2000047946121CF77872E61846701E9000453B
:101C3000F07B019000FD04F0A37404F0A37446F05F
:101C4000A37401F07A007945121D3F7B017A007977
:101C500044756100756201C207E4FF020C6B122833
:101C60004D504753D7BC53A98F43A910E5AFA2E508
:101C7000920253AFDFE5C97F0020E7027F01BF0179
:101C80000DD20143C910E4FF0FBF03FC8002C20163
:101C900043B22012284D40F830010353C9EF3002FF
:101CA0000343AF2012214343D740228F358D368B1B
:101CB000378A388939753C01122716E53525E0FF4A
:101CC000121B63EF523CAF36801FE53B153BAE3A2B
:101CD0007002153AD39400EE940040157837E475FD
:101CE000F0011201B0120046FF121B63EF523C805C
:101CF000D9122700AF3C229000F3EBF0A3EAF0A347
:101D0000E9F0E4F54A9000F9E0FFE54AC39F502E60
:101D10009000F3E0FBA3E0FAA3E0F9854A82758323
:101D20000012005FFF9000F6E0FBA3E0FAA3E0F9E9
:101D3000854A82758300EF12009E054A80C7229073
:101D400000FAEBF0A3EAF0A3E9F0E4F56A900100F1
:101D5000E0FFE56AC39F502E9000FAE0FBA3E0FA93
:101D6000A3E0F9856A8275830012005FFF9000FD91
:101D7000E0FBA3E0FAA3E0F9856A82758300EF1225
:101D8000009E056A80C7228F4C8D4D8B4E8A4F89ED
:101D900050E54DD394004035E59620E7FBE54C44F3
:101DA000E0F596E54E1460112403601824FE701DC2
:101DB000AD50AB4CAF4D02267BAC4FAD50AB4CAFF2
:101DC0004D02261CAD50AB4CAF4D12265C227870F4
:101DD000E624E7600D24FB600E240B700F122249ED
:101DE000800D12227D80081222B1800312274278D2
:101DF0007DE66405601E900042E030E01790003EF2
:101E0000E0FCA3E0FDA3E0FEA3E0FFEC4D4E4F603D
:101E10000312289B227FFF7874E61846703D18E66F
:101E2000184670377876E664011846702E786FE6AB
:101E3000FE30E727541F7023786DE6B404087BFF5B
:101E40007A2A7959800C786DE6B4060F7B007A0007
:101E5000796B7D017C00122698E4FF2212292178FB
:101E60003AE475F0010201B07B017A00795B9000E1
:101E7000E41201C07A00795F7D4022745F2528F565
:101E800082E43400F583E0227B007A007957221245
:101E9000008CAB3AAA3BA93C22FFE4FEFDFCEF22FA
:101EA0008B368A378938AF051DEFD39400402778E9
:101EB00036121E61120046FEC4540FFF121E5CEF64
:101EC00012008CAF06121E5CEF12008C121E5F74A3
:101ED0002012008C80D0121E5F740A121E8FE41232
:101EE0001E8F228B308A3189327533017B10121F8D
:101EF0001BAB30AA31A932753A00753B067D0D7FC8
:101F000055121CABEF5233E4FB121F1B7B407D8745
:101F10007F55122806EF5233AF33227D897F551249
:101F20002806EF5233227871E6FA08E6FB54056082
:101F30001990003EE0FCA3E0FDA3E0FEA3E0FFED6E
:101F40004420FDEC90003E120173EB540A6019909E
:101F5000003EE0FCA3E0FDA3E0FEA3E0FFED4410A3
:101F6000FDEC90003E120173227871E6FC08E690C9
:101F70000044F0ECA3F09000FD7401F0A37404F0B1
:101F8000A37476F0A37402F07B017A007944121DE9
:101F90003F90003EE0FCA3E0FDA3E0FEA3E0FFEDE8
:101FA0004408FDEC90003E020173787D7601788450
:101FB0007606788B760675960F75978FE59620E7EF
:101FC000FB759601759781E59620E7FB75960B7575
:101FD000970FE59620E7FBE5C9A2E650047F038052
:101FE000027F011223160225637873E6FE08E67D60
:101FF000FFC39401EE9400502B7876E664011846F6
:1020000070227872E61846701B786FE6B4811578F6
:102010006DE6B4060F7BFF7A2A79597D017C0012A8
:102020002698E4FDAF0522752303D290C2911224B5
:10203000E41228181221AD121E88121EE38F227B93
:10204000007A0079081203557BFF7A087905122778
:10205000A7D2AFE5226006D290D2918004C290C28E
:102060009180FE8555308556317533007534007585
:102070003557AF31AE301226CFE4F5320531E531B8
:10208000AE307002053014FF7833121E6112004624
:10209000FD1226B50532E532C3940640DF22EFC3B8
:1020A0009441400BEFD394465005EF24C9FF22EF33
:1020B000C39461400BEFD394665005EF24A9FF222F
:1020C000EFC39430400CEFD394395006C3EF9430F3
:1020D000FF227FFF229000DFEBF0A3EAF0A3E9F0FC
:1020E0009000E4E0F9A3E0FAA3E090047BC9F0A338
:1020F000EAF0A3E9F09000DFE0FBA3E0FAA3E0F947
:102100008C1E8D1FD2057F021212E2229000DFEB9F
:10211000F0A3EAF0A3E9F09000E4E0F9A3E0FAA369
:10212000E0900478C9F0A3EAF0A3E9F09000DFE0C2
:10213000FBA3E0FAA3E0F98C618D62D2077F011264
:102140000C6B2243B283E5B920E529E4F5B943B924
:1021500080FFFE0FBF00010EBE01F8BFF4F543B9CA
:1021600040E4FEFF0FBF00010EBE01F8BFF4F5E52D
:10217000B930E5FB53A98F2290293FE493FE9029C3
:102180003EE4937C002400FFEC3EFE7875E6FC08FC
:10219000E6FDC39FEC9E5004AE04AF057BFF7A2999
:1021A000793E8E618F62C207E4FF020C6B85552D6C
:1021B00085562E753000753100753257E4F52F05C0
:1021C0002EE52EAE2D7002052D14FF12282A783030
:1021D000121E61EF12008C052FE52FC3940640DF1D
:1021E000221228D5759611759708E59620E7FB759C
:1021F0009691E59620E7FBE59720E3F37596117538
:102200009708E59620E7FB759691E59620E7FBE5B4
:102210009720E3F3221228D5759614759710E5964A
:1022200020E7FB759694E59620E7FBE59720E4F31D
:10223000759614759710E59620E7FB759694E596CC
:1022400020E7FBE59720E4F3229000FD7401F0A362
:102250007404F0A3745BF0A37410F07B017A00792E
:1022600044121D3F90003EE0FCA3E0FDA3E0FEA36E
:10227000E0FFEE4408FEEC90003E0201739000FD8A
:102280007401F0A37404F0A3746BF0A37406F07BE4
:10229000017A007944121D3F90003EE0FCA3E0FD6E
:1022A000A3E0FEA3E0FFED4404FDEC90003E02013C
:1022B000739000FD7401F0A37404F0A37471F0A393
:1022C0007404F07B017A007944121D3F90003EE0D7
:1022D000FCA3E0FDA3E0FEA3E0FFEE4401FEEC90D2
:1022E000003E0201737FFF7874E6FE7872E6FDEE31
:1022F000C394015020786DE6B4061A7876E6184645
:102300007013ED7010786FE6541FFEBE0107C20116
:1023100012258CE4FF228F4C786DE6F54DC39405B1
:102320004009E54C940550031225FBE54CB4050427
:10233000786EA64D786DA64CE54D654C6007AD4CAA
:10234000AF4D121AB622433A5C4749545C6D63752F
:10235000385C66775C73646B5C4C69625C65666D67
:10236000385F7573625C7372635C65666D385F7548
:102370007362642E63009000F67401F0A37400F0A1
:10238000A37444F0A37402F07B017A047942121C16
:10239000F77B017A007944756100756202C207E437
:1023A000FF020C6B9000F67401F0A37400F0A374AC
:1023B00044F0A37402F07B017A047944121CF77B89
:1023C000017A007944756100756202C207E4FF0278
:1023D0000C6B9000F67401F0A37400F0A37444F049
:1023E000A37406F07B017A04796B121CF77B017AE7
:1023F000007944756100756206C207E4FF020C6B48
:102400009000F67401F0A37400F0A37444F0A37478
:1024100013F07B017A047948121CF77B017A00796A
:1024200044756100756213C207E4FF020C6B9000F3
:10243000F67401F0A37400F0A37444F0A37410F0D8
:102440007B017A04795B121CF77B017A0079447571
:102450006100756210C207E4FF020C6B9000F67415
:1024600001F0A37400F0A37444F0A37404F07B01A2
:102470007A047971121CF77B017A00794475610046
:10248000756204C207E4FF020C6B90003EE0FCA3FF
:10249000E0FDA3E0FEA3E0FF9000DF1201739000D7
:1024A0003E12017F000000009000DFE0FCA3E0FD91
:1024B000A3E0FEA3E0FF229000F67401F0A37400F5
:1024C000F0A37444F0A37401F0FB7A047940121C69
:1024D000F77B017A007944756100756201C207E4F7
:1024E000FF020C6B43AF2043B283E4F5B943B980DC
:1024F0007FC8FEFDFC12250F43B9407FC87E007DDA
:10250000007C0012250FE5B930E5FBE4F5A9228F28
:10251000448E438D428C41E4F545784174FF1201AD
:1025200055E4FBFAF9F8C3120142500C754532AF7D
:10253000451545EF60E480F7227871E608600302F4
:1025400027427872E6900475F090003EE0FCA3E02C
:10255000FDA3E0FEA3E0FFED4401FDEC90003E1280
:1025600001732290003E12017F00000001900042A2
:10257000E030E01790003EE0FCA3E0FDA3E0FEA306
:10258000E0FFEC4D4E4F600312289B22300108788B
:10259000847601788B7601D202D203C2047D407C1E
:1025A000007F01121519C202D203C2047D407C00D3
:1025B0007F01021519AD07ED4480F596E59620E7F9
:1025C000FBAF97EF7F00FEED144480F596E5962073
:1025D000E7FBAD97ED4207227871B6371D08B60BC1
:1025E000199000447403F07B017A0079447561000E
:1025F000756201C207E4FF120C6B22E5E6A2E192CC
:102600000153E6FD754E01AF4E1216EB054EE54E39
:10261000C3940340F230010343E602228D828C838F
:102620001FEF600BE59620E7FBE597F0A380F1E54F
:102630009620E7FBEB4420F596E597F02212081070
:10264000C4EA60FF29EBFF29FBFF2A4F208001002D
:102650000002555FF001530001540000A8051FEF70
:10266000600BE59620E7FBE597F20880F1E5962000
:10267000E7FBEB4420F596E597F222A8051FEF60F3
:102680000AE59620E7FBA6970880F2E59620E7FB8F
:10269000EB4420F596A69722787DE6B4011678786B
:1026A000A60308A60208A60108A60408A60508763F
:1026B00002E408F622A2AF9200122794438F01751C
:1026C000FF8075EF02EDF0538FFEA20092AF22A2C1
:1026D000AF9200122794438F0375FF8075EF02E4D9
:1026E000F0538FFCA20092AF228D828C83AE071F25
:1026F000EE600CE59620E7FBE493F597A380EE22CD
:10270000C2861228C112250F1228BF12250FD286A9
:102710001228C102250F1228BF12250FC2861228C7
:10272000C112250FC2871228C102250F8D828C830A
:10273000AE071FEE600BE59620E7FBE0F597A38060
:10274000EF22E4FF1228D5787D76057596117597EE
:1027500020E59620E7FB22E4FFFE120046600C0F06
:10276000EF70010E09E970F20A80EF22A805AE07AA
:102770001FEE600BE59620E7FBE6F5970880EF2259
:10278000A805AE071FEE600BE59620E7FBE2F59784
:102790000880EF22C2AF75FF8075EF028F828E83B3
:1027A00075B7A575B7F122900058EBF0A3EAF0A336
:1027B000E9F0900042E04401F022A8077FFDE6C462
:1027C000135403FEBE0205120903E4FF227B017AC3
:1027D000007944751E00751F10D205E4FF0212E255
:1027E0007B017A007944751E00751F06D205E4FF4F
:1027F0000212E27B017A007944751E00751F04D233
:1028000005E4FF0212E28B347B007A007934753ADA
:1028100000753B01121CAB22E4F5A4F5A57580FF01
:1028200075A60C75D60C75E24022A2AF9200C2AF1D
:102830008F828E83E493FFA20092AF22786DE6C36D
:10284000940240087F05122316121C5E22759681A1
:10285000E59620E7FBE597A2E122759691E59620A3
:10286000E7FBE597A2E422759691E59620E7FBE564
:1028700097A2E222759691E59620E7FBE597A2E103
:1028800022759691E59620E7FBE597A2E5227596DD
:1028900094E59620E7FBE597A2E622900058A3E096
:1028A000FAA3E0F902023F759691E59620E7FBE571
:1028B000971322759694E59620E7FBE5971322D2AD
:1028C000877F017E007D007C0022787D760143D7E2
:1028D0008043D7402275960E8F97E59620E7FB221E
:1028E000759686E59620E7FBAF9722759682E5966A
:1028F00020E7FBAF9722759684E59620E7FBAF971C
:102900002275968EE59620E7FBAF9722759696E5A1
:102910009620E7FBAF9722900019E0C330E601D381
:1029200022EF540F90161593FF22786EE6FF0223D4
:10293000167F171225B52253D9BF2280FE224200EE
:102940000001010000000000000000020000000281
:102950000000C0C62D00010000003F0100007F0004
:102960000000F0FF07100F00071F00020000000228
:102970000000000000000000000033002E003000C6
:102980000000000000000000000000000000000047
:102990000000000000000000000000000000000037
:1029A00000000000000000000000C201FF0003085A
:1029B00000000000001201100100000040C410607F
:1029C000EA00010102030109022000010100803236
:1029D0000904000002FF0000020705810240000018
:1029E000070501024000000403090410034D002EF6
:1029F0000020004200650074007A00540349006E14
:102A0000006300720065006400690062006C00658C
:102A1000002000460061006E0074006100730074C5
:102A2000006900630020004D0061006700690063D9
:102A300000200043006C006F0063006B0020004228
:102A4000006F007800200033003000300030000AB2
:0B2A500003310039003800370000009F
:00000001FF
