:020000040000FA
:1000000002151E7877E6FA08E6FB64014A70139041
:10001000003EE0FCA3E0FDA3E0FEA3E0FFEE4440D1
:100020008015EB4A701990003EE0FCA3E0FDA3E0D0
:10003000FEA3E0FFEE4480FEEC90003E020173124E
:10004000282A22020EFABB010689828A83E0225006
:1000500002E722BBFE02E32289828A83E49322BB69
:10006000010CE58229F582E5833AF583E02250060A
:10007000E92582F8E622BBFE06E92582F8E222E5C0
:100080008229F582E5833AF583E49322BB01068950
:10009000828A83F0225002F722BBFE01F322F8BBD2
:1000A000010DE58229F582E5833AF583E8F02250D7
:1000B00006E92582C8F622BBFE05E92582C8F222A0
:1000C000BB010A89828A83E0F5F0A3E0225006870B
:1000D000F009E71922BBFE07E3F5F009E3192289CD
:1000E000828A83E493F5F074019322BB0110E582C8
:1000F00029F582E5833AF583E0F5F0A3E022500983
:10010000E92582F886F008E622BBFE0AE92582F896
:10011000E2F5F008E222E5832AF583E993F5F0A3FE
:10012000E99322BB010A89828A83F0E5F0A3F022D9
:100130005006F709A7F01922BBFE06F3E5F009F314
:100140001922EB9FF5F0EA9E42F0E99D42F0E89C0F
:1001500045F0227401FF3395E0FEFDFC080808E637
:10016000CF2FF618E6CE3EF618E6CD3DF618E6CCD3
:100170003CF622ECF0A3EDF0A3EEF0A3EFF022A802
:10018000828583F0D083D0821201961201961201EB
:1001900096120196E473E493A3C583C5F0C583C8A2
:1001A000C582C8F0A3C583C5F0C583C8C582C8226F
:1001B000FAE6FB0808E6F925F0F618E6CA3AF62250
:1001C000EBF0A3EAF0A3E9F022BB010789828A835E
:1001D0000203375005E9F802032EBBFE05E9F802D9
:1001E000034089828A83020349BB010DE58229F518
:1001F00082E5833AF5830203375007E92582F80246
:10020000032EBBFE07E92582F8020340E58229F5AB
:1002100082E5833AF583020349D083D082F8E493E0
:100220007012740193700DA3A393F8740193F58277
:100230008883E4737402936860EFA3A3A380DF8ACA
:10024000838982E473E709F60870FA8046E709F2C9
:100250000870FA803E88828C83E709F0A370FA80E8
:100260007EE309F60870FA8076E309F20870FA80F6
:100270006E88828C83E309F0A370FA806289828A97
:1002800083E0A3F60870FA805689828A83E0A3F29D
:100290000870FA804A80D280FA80C680D480658057
:1002A000F28031801080A680EA809A80A880DA806F
:1002B000E280CA803189828A83ECFAE493A3C8C5BC
:1002C00082C8CCC583CCF0A3C8C582C8CCC583CCBA
:1002D00070E9800D89828A83E493A3F60870F9ECB3
:1002E000FAA9F0EDFB2289828A83ECFAE0A3C8C563
:1002F00082C8CCC583CCF0A3C8C582C8CCC583CC8A
:1003000070EA80DD89828A83E493A3F20870F98021
:10031000CE88F0ED2402B4040050C4F582EB240230
:10032000B4040050BA232345822390029573E6FB60
:1003300008E6FA08E6F922E0FBA3E0FAA3E0F922D6
:10034000E2FB08E2FA08E2F922E493FB740193FA73
:10035000740293F9229000DFEBF0A3EAF0A3E9F036
:1003600090001112005F900043F0E49000ECF090D8
:1003700000ECE0FF7C007BFF248BF9EC342AFA12BE
:100380000046FEEF7B012400F9EC3400FAEE120087
:100390008C9000ECE004F0E0B412D4E49000ECF0B7
:1003A0009000ECE0FF902A9D93FE74122FF582E4FA
:1003B0003400F583EEF09000ECE004F0E0B420E0CF
:1003C0009000DFE0FBA3E0FAA3E0F91200C0FAE539
:1003D000F0FFEAFE900008EEF0A3EFF09000DFA33C
:1003E000E0FA9000021200EBFAE5F0FFEAFE90005E
:1003F0000AEEF0A3EFF090003274FFF0A3742AF03D
:10040000A374BDF09000DFA3E0FAA3E09000041213
:1004100001E9E924FFF9EA34FFFA900035EBF0A393
:10042000EAF0A3E9F09000DFE0FBA3E0FAA3E0F933
:100430009000071201E9E924FFF9EA34FFFA90007D
:1004400038EBF0A3EAF0A3E9F09000DFE0FBA3E0D3
:10045000FAA3E0F990000A1201E9E924FFF9EA346D
:10046000FFFA90003BEBF0A3EAF0A3E9F09000DF85
:10047000E0FBA3E0FAA3E0F990000D12005FFFC3D8
:1004800094FA500590001AEFF09000DFE0FBA3E033
:10049000FAA3E0F990000F1200EBFAE5F0FFEAFE94
:1004A00090000CEEF0A3EFF09000DFA3E0FA9000D4
:1004B0000E12005F900019F09000E27401F0A37436
:1004C00000F0A37400F0A37401F0A37400F0A3740F
:1004D00012F0A37401F0A37400F0A37432F0A374BB
:1004E00004F07B017A0079E212123D90003E120185
:1004F0007F00000000E4900042F09000FD04F0A3B3
:100500007404F0A37440F0A37401F07BFF7A2A799D
:1005100083121E549000FD7401F0A37404F0A374C0
:1005200041F0A37401F07BFF7A2A7984121E549063
:1005300000FD7401F0A37404F0A37442F0A37402EC
:10054000F07BFF7A2A7985121E549000FD7401F029
:10055000A37404F0A37444F0A37401F07BFF7A2A1F
:100560007987121E549000FD7401F0A37404F0A367
:100570007446F0A37401F07BFF7A2A7989121E5425
:100580009000FD7401F0A37404F0A37448F0A37408
:1005900013F07BFF7A2A7956121E549000FD7401E5
:1005A000F0A37404F0A3745BF0A37410F07BFF7AE3
:1005B0002A7969121E549000FD7401F0A37404F0AE
:1005C000A3746BF0A37404F07BFF7A2A7979121E6E
:1005D000549000FD7401F0A37404F0A37471F0A3AF
:1005E0007404F07BFF7A2A797F021E5412259D8FB6
:1005F000278E268D258C24752901752A00752B9F41
:10060000E5275410121798600612174A1221E8E5E0
:1006100027540412179870030206EEE4F528D390CD
:10062000005CE0952890005BE0940050030206E631
:1006300012173DFF12179F8F2CE52C640370117861
:100640009F7C007D017BFF7A08793712031180655A
:10065000E52CB40205121B25805BE52C6003020625
:10066000E112173D6469701D7829121737746912F9
:10067000008C782912173612175D7A00795D7D0695
:10068000121F71803012173DB47205121D2580258E
:1006900012173D646670341222C07829121736741E
:1006A0006612008C782912173612175D7A00795776
:1006B0007D06121F717B017A00799F12283FAC06DC
:1006C000AD0712177B7A00799F801312173DB43F54
:1006D0001012177B7BFF7A0879407DD87C000222BC
:1006E0001F052802061E12174A7C001221E8E52782
:1006F0005402121798600612174A1221E822E4FDEC
:10070000FC754FFF7875E66480600302080D78770A
:10071000E6FE08E6F54BEEFF7E00E460030207EB21
:10072000EF24FE602A14604E240260030207EBE50A
:100730004B60030207EB7893860308E6FA08E6F9B4
:100740008B4C8A4DF54E1200467C00FD0207EBE50E
:100750004B60030207EB7896860308E6FA08E6F991
:100760008B4C8A4DF54E9000021200EBFAE5F0FF3B
:10077000EAFCEFFD80757899860308E6FA08E6F949
:1007800075F003E54BA4F58285F0831201E98B4CEB
:100790008A4D894EE54B700BFC7D04787DE65480D4
:1007A000F680487879E6FE08E6FF4E600AEF6409B5
:1007B0007003EE64047034E54BC3787296502CAB32
:1007C0004CAA4DA94E90000112005F7C00FD120062
:1007D00046547FFF787DE654804FFFF67401254E26
:1007E000F54EE4354DF54DEF4480F6ED4C601E7846
:1007F0007BE6FE08E6FFD3ED9FEC9E4004AC06AD21
:1008000007AB4CAA4DA94E122780E4F54FAF4F22FB
:100810003031323334353637383941424344454636
:10082000006932635F6572720A00636F6E666967A2
:100830005F646F6E650A00696E705F6572720A00B0
:100840000A2D2D2D2D2D2D2D2D2D2D2D2D2D2D2DFB
:100850002D2D2D2D2D2D2D2D2D2D2D2D2D2D2D2DC8
:100860002D2D2D0A204D6167696320436C6F636BEA
:1008700020426F782033303030200920342F313738
:100880002F3138200A2D2D2D2D2D2D2D2D2D2D2DB7
:100890002D2D2D2D2D2D2D2D2D2D2D2D2D2D2D2D88
:1008A0002D2D2D2D2D2D2D0A69203D2073686F775C
:1008B00020536935373020706F7765722D75702041
:1008C00076616C7565730A66203D2073686F7720CA
:1008D000666C6173682076616C7565730A72203D81
:1008E00020726561642063757272656E7420766132
:1008F0006C7565730A77203D207772697465207680
:10090000616C756573202827772030312063322091
:100910002E2E2E27290A0A007884E6139201788168
:10092000E6FE08E6FFC39440EE940040047F40805A
:10093000008F4A854A4B787DE6FF547F64017068DA
:10094000EF30E72608860308E6FA08E6F9C2097DD3
:1009500002E4FF1218737880740226F618E436F663
:10096000154A154A787DE6547FF6E4F54CE54AC30E
:1009700013FFE54CC39F504D787E860308E6FA08C6
:10098000E6F9C2097D01E4FF12187378807401262C
:10099000F618E436F67BFF7A2B792FC2097D01E445
:1009A000FF121873054C80C5787E860308E6FA08A6
:1009B000E6F9C209AD4AE4FF1218737880E54A26C9
:1009C000F618E436F67884E654FBF6C37882E695AA
:1009D0004BFF18E69400FEF608EFF64E701EE54B4E
:1009E0006440601875961175970AE59620E7FB78C4
:1009F000837601E4787DF67884F6800B7596117520
:100A00009702E59620E7FB300114E54BFB7A00786E
:100A100081E6F55108E6F552E4FDFF1210F8227860
:100A200076E61202190A74000A79030A7E040A8320
:100A3000050A88060A8D070A92080A97090A9C0A7D
:100A40000AA10B0AA60C0AB00D0AB50E0ABA0F0AC3
:100A5000BF100AC4110AC9120ACE130AD3140AD845
:100A6000150AAB160AE7190ADD1D0AE21E0AECFF99
:100A700000000AF1121C7F807B1216BC80761224C3
:100A8000898071120003806C1226218067120B1A74
:100A900080621225CA805D121ACB8058121BD48046
:100AA0005312136B804E1224B78049121CD380441A
:100AB000121944803F1224E5803A12228B803512AD
:100AC00025138030122A13802B12203A80261228F8
:100AD000B58021122541801C12207D801712256FC0
:100AE00080121228DB800D1228C880081226C080D0
:100AF0000312282A7883E66405601E900042E030E5
:100B0000E01790003EE0FCA3E0FDA3E0FEA3E0FFC1
:100B1000EC4D4E4F6003122971229000F67401F0E3
:100B2000A37400F0A374EDF0A37402F07B017A04C7
:100B30007940121E0C9000F67401F0A37400F0A32B
:100B400074EEF0A37405F07B017A04795B121E0C3D
:100B50007877E6FC08E6FD5430FF9000EDE054CFD6
:100B60004FF0A3E020E12EEC30E02AE69000ED30DB
:100B7000E006E04401F08004E054FEF090003EE026
:100B8000FCA3E0FDA3E0FEA3E0FFEE4404FEEC9036
:100B9000003E1201739000F2E020E7357877E6FE20
:100BA00008E6FFEE30E12AEF9000ED30E106E04488
:100BB00002F08004E054FDF090003EE0FCA3E0FD74
:100BC000A3E0FEA3E0FFEE4404FEEC90003E120121
:100BD000737883E66405601A9000FD7401F0A374D5
:100BE00004F0A37440F0A37401F0FB7A0079ED12D5
:100BF0001E5422C2017F011229AB122964501575BF
:100C00009694E59620E7FB5397BFE59620E703020D
:100C10000CC080F61229894003020CC0122A078FEB
:100C20004A7891E66403600A08E64402F6754BF9D7
:100C3000806DC37890E6954A18E69400500E78913E
:100C4000760108E64402F6754BF28053788C8603F1
:100C500008E6FA08E6F9AD4A7F01121E9C7892E692
:100C600054FDF6AF4A7E00C37890E69FF618E69EE4
:100C7000F618EF26F618EE36F67890E61846600677
:100C8000E54A6440600678917601D201E4F54B753F
:100C90009694E59620E7FB5397FEE59620E7FB78D0
:100CA00092E630E01B30010354FEF6E54AFB7A0081
:100CB000788FE6F55108E6F552AD4B7F021210F839
:100CC00022754BFF7877E6FC08E6FDEC6003020D29
:100CD000847875E6541F6003020D84787CE618461C
:100CE0006003020D8418E618466003020D847873D1
:100CF000E664047048ED4C60197896860308E6FABD
:100D000008E6F990000512005F787866700218E630
:100D100070727878E67871F67896860308E6FA08B5
:100D2000E6F990000512005F787866700218E670A8
:100D300050D2011226747F0612242980447873E66B
:100D4000640670407877E6FE08E6FF4E60177896F6
:100D5000860308E6FA08E6F990000512005FB50779
:100D600023E4B5061F7878E67871F67878E61846B9
:100D7000700A7F041224291226E38005C20112267C
:100D800074E4F54BAF4B228F638B648A658966E50B
:100D900063601514601280007BFF7A2479597D7E90
:100DA0007C02122A117FFC22E563600A7873E664F4
:100DB0000660037FF722E56375F007A4247EF9AF90
:100DC00001EF2405F8E6FE64016009EE7FFEB4053C
:100DD000027FFB22E5E6A2E1920853E6FDAA65A99F
:100DE00066A807A66408A60208A601EF2403F8A6D1
:100DF0006708A668EF2405F87602A207E4335401D9
:100E0000FEEF2406F8E654FE4EF6E56314600B048C
:100E1000702C7884E64404F68024D3E5689440E599
:100E200067940040047D408004AF68AD07788586F4
:100E30000308E6FA08E6F9D2097F011218733008B0
:100E40000343E6027F0022754BFF787CE6640218BC
:100E5000466003020EF77878E618466003020EF744
:100E60007875E6FF20E703020EF77873E6C3940473
:100E70005003020EF7E4F56EF56FEF541F1460187F
:100E800014602324027061787AE61846705A122999
:100E9000ED5052436E01804DC3787AE6940118E616
:100EA00094005044803F7879E6FE08E6FFAC065493
:100EB0007F4C70087873E6B4040280297873E6B436
:100EC0000626EF247F60122480701D7891E6B40618
:100ED00006756E01756F00800C788AE6B40606759B
:100EE0006E01756F00E4F54BE54B700BFB7A0079F2
:100EF0006E7D02FC122780AF4B22C0E0C0F0C083A1
:100F0000C082C0D075D000C000C001C002C003C004
:100F100004C005C006C0071229B68F461229C18F2A
:100F2000471229CC8F481229D78F49E54630E3284C
:100F30007884E6FF30E10618E66403600AEF30E2E9
:100F4000097883E6B402034347017892E630E1086A
:100F500018E6B40303434802E54630E2031220BE1C
:100F6000E54630E103122A00E54630E0031229127B
:100F7000E54730E103120FA8E54830E103120BF317
:100F8000E54730E00312119EAF491229ABD007D0DC
:100F900006D005D004D003D002D001D000D0D0D0EC
:100FA00082D083D0F0D0E0327F011229AB122957D2
:100FB0005010759611E4F597E59620E70302104F5F
:100FC00080F6788AE66402600302104F7888E6FEB5
:100FD00008E6FFD39440EE940040047F4080008FE9
:100FE0004A7E00C37889E69FF618E69EF618EF263B
:100FF000F618EE36F6788BE61392017888E6FE084E
:10100000E6FFD39400EE94004024D3EF9440EE9496
:101010000040047D4080047889E6FD7885860308D9
:10102000E6FA08E6F9D2097F011218738009788B75
:10103000E654FEF6187601300115E54AFB7A007891
:1010400088E6F55108E6F552E4FD7F011210F8221A
:10105000754BFF787CE6184660030210F57875E65C
:10106000541F24FE60030210F57878E618466003EA
:101070000210F57879E6FE08E6547FFF4E700D7891
:1010800073E6C394044005E4F54B8069C3EF940311
:10109000EE940050607873E664067059F54B787AE8
:1010A000E6547FFF1229AB787AE630E70B7596118C
:1010B000759740E59620E7FB787AE620E718759665
:1010C00094E59620E7FB5397DFE59620E7FB4397EF
:1010D00080E59620E7FB787AE6247F600F24807015
:1010E000147891E66403600D76018009788AE664DD
:1010F0000260027601AF4B228F4D8D4E8A4F8B508E
:10110000E54D7012E54E700E7875E6C4135403FF7A
:10111000BF0203121EE3E54DB4012EE54E702A9086
:101120000478E0FBA3E0FAA3E0F9E54F8550F01264
:10113000012390003EE0FCA3E0FDA3E0FEA3E04419
:1011400002FFEC90003E120173E54DB4022EE54E15
:10115000702A90047BE0FBA3E0FAA3E0F9E54F8559
:1011600050F012012390003EE0FCA3E0FDA3E0FE5E
:10117000A3E04404FFEC90003E120173900042E0B3
:1011800030E01790003EE0FCA3E0FDA3E0FEA3E00A
:10119000FFEC4D4E4F6003122971E4FEFF22E4FF85
:1011A0001229AB12293D4005122930501D759611A8
:1011B000E4F597E59620E7FB759611759780E5961F
:1011C00020E7FB78837601E408F612297D505F78EA
:1011D00084E6FF30E30280537883E66401703E7852
:1011E0007DF61219AA7F751228A2BFFD147875E644
:1011F000FFC413540370051215AD803212282A80E3
:101200002D7875E620E7277883E664036020787CF4
:10121000E6184660197884E64408F680117883E67B
:10122000B403051212D480067884E64402F678836B
:10123000E6B4020812294A4003120918228B248AB4
:1012400025892653E6FDE4FF74712FF8E4F60FBFFD
:101250002BF6AB24AA25A9261201C97893A6030868
:10126000A60208A601AB24AA25A926900003120114
:10127000E97896A60308A60208A601AB24AA25A928
:10128000269000061201E97899A60308A60208A68E
:1012900001AB24AA25A92690000912005F7872F6F6
:1012A00053A98F43D720759601759788E59620E757
:1012B000FB75960B75970FE59620E7FB1229A07832
:1012C00073760343E602759601759781E59620E7EC
:1012D000FB7F00227884E61392011229E28F4AC331
:1012E0007882E69F18E69400500E7883760108E62F
:1012F0004402F6754BF2805A787E860308E6FA08B7
:10130000E6F9AD4AE4FF121E9CAF4A7E007880EFFA
:1013100026F618EE36F6C37882E69FFF18E69EFEA4
:10132000F608EFF6E4F54BEF4E701CE54A644060BA
:1013300016759611759748E59620E7FB7883760138
:1013400008E654FEF6800B759611759740E59620D9
:10135000E7FB300115E54AFB7A007881E6F5510894
:10136000E6F552AD4BE4FF1210F8229000F674013E
:10137000F0A37400F0A37446F0A37402F07B017A2A
:10138000047946121E0C7877E6FC08E6900044F0DB
:10139000ECA3F0A3E0FF900044E0FEEF5E90004677
:1013A000F0A3E0FF900045E0FEEF5E900047F09074
:1013B00000FD7401F0A37404F0A37444F0A374025C
:1013C000F07B017A007944121E549000FD7401F004
:1013D000A37404F0A37446F0A37402F07B017A00B6
:1013E0007946121E5490003EE0FCA3E0FDA3E0FE0F
:1013F000A3E0FFED4402FDEC90003E0201738F1A62
:101400008B1B8A1C891DE51A601624FE6012800061
:101410007BFF7A2479597D117C01122A117FFC22ED
:10142000E51A600A7873E6640660037FF722E51A1E
:1014300075F007A4247EF9AF01EF2405F8E6FE64F9
:10144000016009EE7FFEB405027FFB22E5E6A2E122
:10145000920653E6FDAA1CA91DA807A61B08A60212
:1014600008A601EF2403F8A61E08A61FEF2405F81E
:101470007603A205E4335401FEEF2406F8E654FE99
:101480004EF654F7F630060343E6027F0022754B12
:10149000FF787CE61846600302151B7875E6541F3A
:1014A00024FE70777879E6FE08E6547FFF4E700DD3
:1014B0007873E6C394044005E4F54B805EC3EF9473
:1014C00003EE940050557878E61846704E7873E62F
:1014D00064067047F54B787AE6547FFF1229AB78A3
:1014E0007AE630E70B759611759710E59620E7FBC5
:1014F000787AE620E710759694E59620E7FB439707
:1015000020E59620E7FB787AE6247F600A24807045
:101510000A789176068004788A7606AF4B22122AE2
:101520000D787FE4F6D8FD75819B021568021FF7E0
:10153000E493A3F8E493A34003F68001F208DFF4F8
:101540008029E493A3F85407240CC8C333C4540F70
:101550004420C8834004F456800146F6DFE4800B43
:101560000102040810204080902725E47E0193604A
:10157000BCA3FF543F30E509541FFEE493A3600170
:101580000ECF54C025E060A840B8E493A3FAE493DA
:10159000A3F8E493A3C8C582C8CAC583CAF0A3C888
:1015A000C582C8CAC583CADFE9DEE780BEE4F54A62
:1015B0007876E6B40C00506A9015BFF828287302BC
:1015C00015E30215EA0216220215F102162202158F
:1015D000F80215FF02162202160602160D02161454
:1015E00002161B120E478F4A803B1210508F4A8002
:1015F0003412148E8F4A802D121A0E8F4A802612B2
:1016000006FE8F4A801F121F2A8F4A8018120CC1B3
:101610008F4A80111220FD8F4A800A1223F88F4AC8
:101620008003754AFFE4FF1229ABE54AB4FF0312B9
:10163000282AAF4A22AE07E4FB1229AB300313A8D5
:101640000674107E00088005C333CE33CED8F9FF70
:101650008013AF0674207E00A807088005C333CE30
:1016600033CED8F9FFD3ED9FEC9E50034303803077
:1016700004034303403002204303203003034303A9
:1016800004759611759740E59620E7FB7596128BC9
:1016900097E59630E72580F9759614759780E5965D
:1016A00020E7FB7596158B97E59620E7FB20030B4B
:1016B000759612E4F597E59620E7FB227878E654D4
:1016C0000F24FD5005800012282A7878E654F06037
:1016D0001524F0601124F0600D24F0600924F060FE
:1016E00005800012282A7877E60824FB24FC5005A0
:1016F000800012282A7883E6640560349000FD7427
:1017000001F0A37404F0A37442F0A37402F07B0010
:101710007A007977121E5490003EE0FCA3E0FDA30E
:10172000E0FEA3E0FFEE4402FEEC90003E120173E7
:10173000221229F7783AE475F0010201B0745F25AE
:1017400028F582E43400F583E0227B017A00795B9E
:101750009000E41201C07A00795F7D40227420126B
:10176000008C85293A852A3B852B3C7B00227B0017
:10177000753B00753C067D0D7F55227B017A007913
:101780005D9000E40201C012008CAB3AAA3BA93C78
:10179000227B007A00795722FFE4FEFDFCEF22AEA7
:1017A00007E55314600F04705AEE64777058F554CF
:1017B0007553018051AF061221B1EFD3940F502120
:1017C000E55430E00AC3132457F8E64FF6800EEFD5
:1017D000C454F0FFE554C3132457F8A607055480FA
:1017E00015EE64206010EE642C600BEE643B600626
:1017F000E4F5537F0322E554C3940C4009E4F55308
:101800007F0222E4F553AF53228F4FE4F551E54FA9
:101810006005C3940340127BFF7A2479597D4A7C8A
:1018200000122A117551FC8041E5E6A2E1920253B3
:10183000E6FDE54F75F007A4247EF98950E55024B4
:1018400005F8E664016023E54F24FE600A04700C8D
:101850007F011222F480057F01122328E550240520
:10186000F87601E5502406F8E4F630020343E60278
:10187000AF51228F698D6A8B6B8A6C896DE59620DA
:10188000E7FBE5694420F596E56B146013240360DB
:101890001A146020147026AD6DAF6A122854801D92
:1018A000AC6CAD6DAF6A1228148012AD6DAF6A12C8
:1018B00028688009AC6CAD6DAF6A1227D130091C65
:1018C000E569D394004015AF691229AB759691E58F
:1018D0009620E7FB439701E59620E7FB228F368DA4
:1018E000378B388A39893A753D011227FEE536254E
:1018F000E012193CAF37121C2AEF523D1227FEE5C9
:101900003625E0440112193CE53C153CAE3B700223
:10191000153BD39400EE9400401CE53C453B7F0012
:1019200060027F01121A707838E475F0011201B07C
:10193000EF12008C80D21227E8AF3D22FF121C2A42
:10194000EF523D229000F67401F0A37400F0A374EE
:1019500044F0A37406F07B017A04796B121E0C78B4
:1019600077E6FC08E6FDECFF7C0074442DF582EC84
:101970003400F583EFF09000FD7401F0A37404F0DF
:10198000A3746BF0A37402F07B017A007944121EF9
:101990005490003EE0FCA3E0FDA3E0FEA3E0FFEDD9
:1019A0004404FDEC90003E020173754A75A94A7A21
:1019B000007B007D08E4FF121E9C75961175974010
:1019C000E59620E7FBE54A2402F8E6FC08E6FAEC97
:1019D000FFEAFEE54A2402F8A60608A607E54A241F
:1019E00004F8E6FC08E6FAECFFEAFEE54A2404F80F
:1019F000A60608A607E54A2406F8E6FC08E6FAEC7F
:101A0000FFEAFEE54A2406F8A60608A60722754B5B
:101A1000FF7877E6FE08E6FFC39480EE9400504D11
:101A2000787CE6184670467875E6541F703F787AE1
:101A3000E6184670387873E6B4030BEF4E60197FF2
:101A40000412242980127873E6B4040F7878E6181B
:101A50004670057F03122429E4F54BE54B700EF523
:101A6000967878E64480F597E59620E7FBAF4B2221
:101A70008F3EE4F540F53FE54025E0F5401229951D
:101A80001225F7A286E4334240C287122997122515
:101A9000F7053FE53FD3940740DDC287122997122F
:101AA00025F7E53E6004C2868002D286122997128D
:101AB00025F71229951225F7C2871229971225F7C3
:101AC000D2861229971225F7AF40229000F67401B2
:101AD000F0A37400F0A37444F0A37405F07B017AC2
:101AE000047948121E0C900048E0FF30E30354F7DD
:101AF000F09000FD7401F0A37404F0A37448F0A307
:101B00007405F07B017A007944121E5490003EE087
:101B1000FCA3E0FDA3E0FEA3E0FFEE4410FEEC908A
:101B2000003E020173E4FF752D01752E00752F9F95
:101B3000782D121737747712008C782D121736749F
:101B40002012008C852D3A852E3B852F3C12179153
:101B50007D06121F718B2D8A2E892F122176121766
:101B600091121FB4EFA82FAC2EAD2D7BFF60067A2B
:101B700008792A80047A087921120311228F4EAB4A
:101B800005BB051790003EE0FCA3E0FDA3E0FEA32B
:101B9000E04480FFEC90003E120173BB06179000FA
:101BA0003EE0FCA3E0FDA3E0FEA3E04440FFEC9098
:101BB000003E120173900042E030E01790003EE0DA
:101BC000FCA3E0FDA3E0FEA3E0FFEC4D4E4F60035D
:101BD000122971229000F67401F0A37400F0A3742E
:101BE00044F0A37405F07B017A047948121E0C902E
:101BF0000048E04408F09000FD7401F0A37404F084
:101C0000A37448F0A37405F07B017A007944121E96
:101C10005490003EE0FCA3E0FDA3E0FEA3E0FFEE55
:101C20004420FEEC90003E0201738F3EE4F53FE558
:101C30003E30E704D2868002C2861229971225F729
:101C40001229951225F7E53E25E0F53EC2871229B7
:101C5000971225F7053FE53FD3940740D2D286126D
:101C600029971225F71229951225F77F0020860261
:101C70007F018F40C2871229971225F7AF40227843
:101C800078E618467035A2AF33FBC2AFE490044447
:101C9000F0A3F0900446F0A3F0900440E0F0900030
:101CA0003EE0FCA3E0FDA3E0FEA3E04420FFEC90B7
:101CB000003E120173EB24FF92AF2290003EE0FC45
:101CC000A3E0FDA3E0FEA3E04410FFEC90003E1271
:101CD0000173229000F67401F0A37400F0A3744421
:101CE000F0A37401F0FB7A047946121E0C7878E6B2
:101CF0001846701E900045F07B019000FD04F0A393
:101D00007404F0A37446F0A37401F07A00794512CC
:101D10001E547B017A007944756700756801C2071B
:101D2000E4FF020D8775330175340075359F7A0025
:101D3000792D12176E1218DD78331217367472125D
:101D4000008C7833121736742012008CEF601485E3
:101D5000333A85343B85353C7B007A00792D7D060E
:101D6000021F71A835AC34AD337BFF7A087921129C
:101D7000031122122923504753D7BC53A98F43A9DB
:101D800010E5AFA2E5920253AFDFE5C97F0020E77F
:101D9000027F01BF010DD20143C910E4FF0FBF0351
:101DA000FC8002C20143B22012292340F830010313
:101DB00053C9EF30020343AF2012225643D74022CB
:101DC0008F358D368B378A388939753C011227FE5D
:101DD000E53525E0FF121C2AEF523CAF36801FE5A7
:101DE0003B153BAE3A7002153AD39400EE94004096
:101DF000157837E475F0011201B0120046FF121C8D
:101E00002AEF523C80D91227E8AF3C229000F3EB36
:101E1000F0A3EAF0A3E9F0E4F54A9000F9E0FFE569
:101E20004AC39F502E9000F3E0FBA3E0FAA3E0F931
:101E3000854A8275830012005FFF9000F6E0FBA3E5
:101E4000E0FAA3E0F9854A82758300EF12009E054F
:101E50004A80C7229000FAEBF0A3EAF0A3E9F0E48D
:101E6000F570900100E0FFE570C39F502E9000FADE
:101E7000E0FBA3E0FAA3E0F985708275830012000D
:101E80005FFF9000FDE0FBA3E0FAA3E0F98570821C
:101E9000758300EF12009E057080C7228F4C8D4D18
:101EA0008B4E8A4F8950E54DD394004035E59620FE
:101EB000E7FBE54C44E0F596E54E14601124036021
:101EC0001824FE701DAD50AB4CAF4D022763AC4FD4
:101ED000AD50AB4CAF4D022704AD50AB4CAF4D12E3
:101EE0002744227876E624E7600D24FB600E240B5D
:101EF000700F12235C800D12239080081223C4807F
:101F00000312282A7883E66405601E900042E030C0
:101F1000E01790003EE0FCA3E0FDA3E0FEA3E0FF9D
:101F2000EC4D4E4F6003122971227FFF787AE6183C
:101F300046703D18E618467037787CE6640118460E
:101F4000702E7875E6FE30E727541F70237873E60D
:101F5000B404087BFF7A2B792F800C7873E6B406E3
:101F60000F7B007A0079717D017C00122780E4FFED
:101F7000228B368A378938AF051DEFD3940040276E
:101F80007836121736120046FEC4540FFF1217316E
:101F9000EF12008CAF06121731EF12008C121734BB
:101FA000742012008C80D0121734740A121787E440
:101FB000121787228B308A3189327533017B1012D8
:101FC0001FECAB30AA31A932753A00753B067D0D86
:101FD0007F55121DC0EF5233E4FB121FEC7B407D96
:101FE000877F551228EEEF5233AF33227D897F551C
:101FF0001228EEEF523322752303D290C2911221A0
:102000003B7A00795D12176E1218DD1222C012178A
:1020100091121FB48F227B007A0079081203557B3E
:10202000FF7A0579EC12288FD2AFE5226006D290B4
:10203000D2918004C290C29180FE7877E6FA08E6D9
:10204000FB5405601990003EE0FCA3E0FDA3E0FE18
:10205000A3E0FFED4420FDEC90003E120173EB5431
:102060000A601990003EE0FCA3E0FDA3E0FEA3E0BF
:10207000FFED4410FDEC90003E120173227877E6EC
:10208000FC08E6900044F0ECA3F09000FD7401F031
:10209000A37404F0A37476F0A37402F07B017A00B9
:1020A0007944121E5490003EE0FCA3E0FDA3E0FE44
:1020B000A3E0FFED4408FDEC90003E02017378833D
:1020C0007601788A76067891760675960F75978FE1
:1020D000E59620E7FB759601759781E59620E7FB6D
:1020E00075960B75970FE59620E7FBE5C9A2E650BC
:1020F000047F0380027F0112242902264B7879E6AF
:10210000FE08E67DFFC39401EE9400502B787CE638
:102110006401184670227878E61846701B7875E6D8
:10212000B481157873E6B4060F7BFF7A2B792F7D87
:10213000017C00122780E4FDAF052243AF2043B2AB
:1021400083E4F5B943B9807FC8FEFDFC1225F7434F
:10215000B9407FC87E007D007C001225F7E5B930CC
:10216000E5FBE4F5A9F5A4F5A57580FF75A60C754A
:10217000D60C75E240228555308556317533007591
:102180003400753557AF31AE301227B7E4F532055C
:1021900031E531AE307002053014FF783312173656
:1021A000120046FD12279D0532E532C3940640DF3A
:1021B00022EFC39441400BEFD394465005EF24C95E
:1021C000FF22EFC39461400BEFD394665005EF24D8
:1021D000A9FF22EFC39430400CEFD394395006C3CB
:1021E000EF9430FF227FFF229000DFEBF0A3EAF0B4
:1021F000A3E9F09000E4E0F9A3E0FAA3E090047B07
:10220000C9F0A3EAF0A3E9F09000DFE0FBA3E0FA55
:10221000A3E0F98C1E8D1FD2057F021213FE2290BF
:1022200000DFEBF0A3EAF0A3E9F09000E4E0F9A30B
:10223000E0FAA3E0900478C9F0A3EAF0A3E9F090F3
:1022400000DFE0FBA3E0FAA3E0F98C678D68D2071A
:102250007F01120D872243B283E5B920E529E4F519
:10226000B943B980FFFE0FBF00010EBE01F8BFF4F5
:10227000F543B940E4FEFF0FBF00010EBE01F8BFF9
:10228000F4F5E5B930E5FB53A98F22902A15E493C4
:10229000FE902A14E4937C002400FFEC3EFE787B41
:1022A000E6FC08E6FDC39FEC9E5004AE04AF057B40
:1022B000FF7A2A79148E678F68C207E4FF020D87C0
:1022C00085552D85562E753000753100753257E4D1
:1022D000F52F052EE52EAE2D7002052D14FF1229C7
:1022E000007830121736EF12008C052FE52FC394BB
:1022F0000640DF221229AB759611759708E59620E6
:10230000E7FB759691E59620E7FBE59720E3F375EB
:102310009611759708E59620E7FB759691E596204E
:10232000E7FBE59720E3F3221229AB759614759726
:1023300010E59620E7FB759694E59620E7FBE59778
:1023400020E4F3759614759710E59620E7FB7596D3
:1023500094E59620E7FBE59720E4F3229000FD74D6
:1023600001F0A37404F0A3745BF0A37410F07B017C
:102370007A007944121E5490003EE0FCA3E0FDA3D5
:10238000E0FEA3E0FFEE4408FEEC90003E02017385
:102390009000FD7401F0A37404F0A3746BF0A374B7
:1023A00006F07B017A007944121E5490003EE0FC56
:1023B000A3E0FDA3E0FEA3E0FFED4404FDEC9000EC
:1023C0003E0201739000FD7401F0A37404F0A37445
:1023D00071F0A37404F07B017A007944121E5490CA
:1023E000003EE0FCA3E0FDA3E0FEA3E0FFEE44011D
:1023F000FEEC90003E0201737FFF787AE6FE78786B
:10240000E6FDEEC3940150207873E6B4061A787C9A
:10241000E618467013ED70107875E6541FFEBE0185
:1024200007C201122674E4FF228F4C7873E6F54D43
:10243000C394054009E54C940550031226E3E54C8E
:10244000B405047874A64D7873A64CE54D654C60D0
:1024500007AD4CAF4D121B7D22433A5C4749545C9B
:102460006D6375385C66775C73646B5C4C69625C49
:1024700065666D385F7573625C7372635C65666D0B
:10248000385F757362642E63009000F67401F0A3E8
:102490007400F0A37444F0A37402F07B017A047911
:1024A00042121E0C7B017A00794475670075680240
:1024B000C207E4FF020D879000F67401F0A37400D8
:1024C000F0A37444F0A37402F07B017A04794412FF
:1024D0001E0C7B017A007944756700756802C2079B
:1024E000E4FF020D879000F67401F0A37400F0A3DE
:1024F0007444F0A37406F07B017A04796B121E0C0D
:102500007B017A007944756700756806C207E4FFAD
:10251000020D879000F67401F0A37400F0A37444D8
:10252000F0A37413F07B017A047948121E0C7B012E
:102530007A007944756700756813C207E4FF020DDD
:10254000879000F67401F0A37400F0A37444F0A324
:102550007410F07B017A04795B121E0C7B017A0007
:102560007944756700756810C207E4FF020D879013
:1025700000F67401F0A37400F0A37444F0A3740493
:10258000F07B017A047971121E0C7B017A00794488
:10259000756700756804C207E4FF020D8790003E6E
:1025A000E0FCA3E0FDA3E0FEA3E0FF9000DF12014A
:1025B0007390003E12017F000000009000DFE0FCFD
:1025C000A3E0FDA3E0FEA3E0FF229000F67401F07B
:1025D000A37400F0A37444F0A37401F0FB7A0479AF
:1025E00040121E0C7B017A00794475670075680102
:1025F000C207E4FF020D878F448E438D428C41E475
:10260000F545784174FF120155E4FBFAF9F8C3125D
:102610000142500C754532AF451545EF60E480F737
:10262000227877E608600302282A7878E690047515
:10263000F090003EE0FCA3E0FDA3E0FEA3E0FFED90
:102640004401FDEC90003E1201732290003E120105
:102650007F00000001900042E030E01790003EE073
:10266000FCA3E0FDA3E0FEA3E0FFEC4D4E4F6003B2
:1026700012297122300108788A760178917601D288
:1026800002D203C2047D407C007F01121635C202D3
:10269000D203C2047D407C007F01021635AD07EDF8
:1026A0004480F596E59620E7FBAF97EF7F00FEEDBF
:1026B000144480F596E59620E7FBAD97ED4207229E
:1026C0007877B6371D08B60B199000447403F07B79
:1026D000017A007944756700756801C207E4FF124A
:1026E0000D8722E5E6A2E1920153E6FD754E01AFAA
:1026F0004E121809054EE54EC3940340F230010313
:1027000043E602228D828C831FEF600BE59620E763
:10271000FBE597F0A380F1E59620E7FBEB4420F57D
:1027200096E597F022120810C4EA60FF2AC1FF2A3A
:10273000D1FF2B25208001000002555FF0015300DE
:1027400001540000A8051FEF600BE59620E7FBE5AC
:1027500097F20880F1E59620E7FBEB4420F596E53B
:1027600097F222A8051FEF600AE59620E7FBA697DF
:102770000880F2E59620E7FBEB4420F596A6972229
:102780007883E6B40116787EA60308A60208A6019F
:1027900008A60408A605087602E408F622A2AF926D
:1027A0000012287C438F0175FF8075EF02EDF05316
:1027B0008FFEA20092AF22A2AF920012287C438F1C
:1027C0000375FF8075EF02E4F0538FFCA20092AF17
:1027D000228D828C83AE071FEE600CE59620E7FB0E
:1027E000E493F597A380EE22C2861229971225F76B
:1027F0001229951225F7D2861229970225F7122958
:10280000951225F7C2861229971225F7C287122939
:10281000970225F78D828C83AE071FEE600BE5963D
:1028200020E7FBE0F597A380EF22E4FF1229AB78C5
:10283000837605759611759720E59620E7FB22E4CF
:10284000FFFE120046600C0FEF70010E09E970F2F6
:102850000A80EF22A805AE071FEE600BE59620E781
:10286000FBE6F5970880EF22A805AE071FEE600B88
:10287000E59620E7FBE2F5970880EF22C2AF75FFEF
:102880008075EF028F828E8375B7A575B7F12290A0
:102890000058EBF0A3EAF0A3E9F0900042E0440115
:1028A000F022A8077FFDE6C4135403FEBE02051202
:1028B0000A1FE4FF227B017A007944751E00751F10
:1028C00010D205E4FF0213FE7B017A007944751EE5
:1028D00000751F06D205E4FF0213FE7B017A007922
:1028E00044751E00751F04D205E4FF0213FE8B34ED
:1028F0007B007A007934753A00753B01121DC022C5
:10290000A2AF9200C2AF8F828E83E493FFA20092A7
:10291000AF227873E6C3940240087F05122429127F
:102920001D7322759681E59620E7FBE597A2E122CB
:10293000759691E59620E7FBE597A2E422759691BE
:10294000E59620E7FBE597A2E222759691E59620B1
:10295000E7FBE597A2E122759691E59620E7FBE576
:1029600097A2E522759694E59620E7FBE597A2E607
:1029700022900058A3E0FAA3E0F902023F75969175
:10298000E59620E7FBE5971322759694E59620E7F8
:10299000FBE5971322D2877F017E007D007C002219
:1029A0007883760143D78043D7402275960E8F9760
:1029B000E59620E7FB22759686E59620E7FBAF9724
:1029C00022759682E59620E7FBAF9722759684E5FF
:1029D0009620E7FBAF972275968EE59620E7FBAF32
:1029E0009722759696E59620E7FBAF9722900019FF
:1029F000E0C330E601D322EF540F90081093FF227A
:102A00007874E6FF0224297F1712269D2253D9BF2E
:102A10002280FE22420000010100000000000000B0
:102A20000002000000020000C0C62D0001000000EE
:102A30003F0100007F000000F0FF07100F00071F9C
:102A40000002000000020000000000000000000082
:102A500033002E00300000000000000000000000E5
:102A60000000000000000000000000000000000066
:102A70000000000000000000000000000000000056
:102A8000C201FF0003080000000000120110010055
:102A9000000040C41060EA000101020301090220A5
:102AA0000001010080320904000002FF000002075B
:102AB00005810240000007050102400000040309EF
:102AC0000410034D002E0020004200650074007ABF
:102AD00000540349006E00630072006500640069E1
:102AE0000062006C0065002000460061006E00740A
:102AF000006100730074006900630020004D0061F4
:102B000000670069006300200043006C006F0063F1
:102B1000006B00200042006F00780020003300307E
:102B200000300030000A033100390038003700005F
:012B300000A4
:00000001FF
